:1000000045C0000060C000005EC000005CC0000091
:100010005AC0000058C0000056C0000054C0000084
:1000200052C0000050C000004EC000004CC0000094
:100030004AC0000048C0000046C0000044C00000A4
:1000400042C0000040C000003EC000003CC00000B4
:100050003AC0000038C0000036C0000034C00000C4
:1000600032C0000030C000002EC000002CC00000D4
:100070002AC0000028C0000026C0000024C00000E4
:1000800022C0000020C000001EC0000011241FBEBE
:10009000CFEFD0E1DEBFCDBF11E0A0E0B1E0ECE9F1
:1000A000F2E000E00BBF02C007900D92A230B10752
:1000B000D9F721E0A2E0B1E001C01D92A630B2075D
:1000C000E1F7CED0E9C09CCF90939800809399003F
:1000D00080E180939A00089580919B008823E4F743
:1000E00081E08093000180919C000895813091050A
:1000F000C1F48091020190910301892B49F481E0C0
:100100008BBB81E090E090930501809304010895FA
:1001100083E08BBB81E090E0909305018093040124
:10012000089582309105C1F48091040190910501F8
:10013000892B49F482E08BBB81E090E0909303012E
:1001400080930201089583E08BBB81E090E090935F
:1001500003018093020108958330910519F583E12D
:1001600085BB2FE53AEE80E0215030408040E1F73A
:1001700000C0000083E085BB9FE726E938E9915085
:1001800020403040E1F700C0000093E295BB9FE5BE
:100190002AEE30E0915020403040E1F700C00000EE
:1001A00085BB08958430910519F483E885BB0895D3
:1001B000892B71F483E08BBB81E090E09093050183
:1001C00080930401909303018093020183E885BB2F
:1001D00008958630910599F4809102019091030170
:1001E000019739F482E08BBB109205011092040153
:1001F00008951BBA109205011092040108958730EA
:100200009105A1F48091040190910501019739F4C1
:1002100081E08BBB109203011092020105C01BBA52
:1002200010920301109202011BBA089588309105C3
:1002300019F483E085BB08958930910519F483E0B2
:1002400085BB0895059759F41BBA109205011092C9
:100250000401109203011092020183E085BB08950E
:1002600087E690E031DF87E08ABB81E087BB8FEFD4
:1002700084BB32DF90E0C097209100012223C9F3B4
:10028000109200018530910514F430DFF2CF8530F3
:0C02900091057CF39EDFEDCFF894FFCFCA
:02029C0001005F
:00000001FF
